:020000040800F2
:10000000000002201D510008A1080008AF080008E8
:10001000B5080008BB080008C1080008000000007F
:10002000000000000000000000000000C7080008F9
:10003000D508000800000000E3080008F1080008E7
:100040006D5100086D5100086D5100086D51000898
:100050006D5100086D5100086D5100086D51000888
:10006000FD0800080B090008190900086D51000877
:100070006D5100086D5100086D5100086D51000868
:10008000290900086D5100086D5100086D510008E4
:100090006D5100086D5100086D5100083D090008C0
:1000A0006D5100086D5100086D5100086D51000838
:1000B0006D5100086D5100086D5100086D51000828
:1000C0006D5100086D5100086D5100086D51000818
:1000D0006D5100086D5100086D5100086D51000808
:1000E000610900086D5100086D5100086D5100084C
:1000F0006D5100086D5100086D5100086D510008E8
:100100006D5100086D5100086D5100086D510008D7
:100110006D5100086D5100086D5100086D510008C7
:100120006D5100086D5100086D5100086D510008B7
:100130006D5100086D5100086D5100086D510008A7
:100140006D5100086D5100086D5100086D51000897
:100150006D5100086D5100086D5100086D51000887
:100160006D5100086D5100086D5100086D51000877
:100170006D5100086D5100086D510008000000002D
:080180006D5100086D510008EB
:1001900001F0FF01102A2BDB10F0070F08D010F838
:1001A000013B013A8B422DD010F0070F42B3F6D13C
:1001B000F0B441EA012141EA014122F007047FF055
:1001C00000070023F0E80256083C85EA010586EAAC
:1001D000010685FA47F5A3FA87F586FA47F6A5FAE8
:1001E00087F68EB9EED1F0BC01F0FF0102F00702F4
:1001F00032B110F8013B013A83EA010313B1F8D19F
:100200000020704701387047002D06BF354603387F
:10021000073815F0010F07D1013015F4807F02BFB8
:10022000013015F4C03F0130F0BC0138704700BF09
:1002300053B94AB9002908BF00281CBF4FF0FF314D
:100240004FF0FF3000F00CB8ADF1080C6DE904CEB2
:1002500008F04EFBDDF804E0DDE9022304B070474E
:10026000704700BF10B5054C227832B9044B13B16A
:100270000448AFF300800123237010BD6003002009
:10028000000000009C8B000808B5034B1BB103491C
:100290000348AFF3008008BD0000000064030020A5
:1002A0009C8B000880B500AF02F0F0FE00F014F85F
:1002B00000F0AAF900F088F900F0CAF800F056F949
:1002C00000F074F800F0F2F800F026F905F00AFEEC
:1002D0000023184680BD000080B594B000AF07F140
:1002E000200330220021184607F002FB07F10C031F
:1002F00000221A605A609A60DA601A610023BB60BB
:10030000284B1B6C274A43F080531364254B1B6C0E
:1003100003F08053BB60BB6800237B60224B1B68EB
:10032000214A43F4804313601F4B1B6803F480434E
:100330007B607B6801233B624FF480337B62022346
:10034000BB634FF48003FB6319233B64C0237B64CE
:100350000223BB640423FB6407F12003184600F06A
:1003600075FF0346002B01D000F088FA0F23FB60D5
:1003700002233B6100237B614FF4A053BB614FF428
:100380008053FB6107F10C030321184601F07EFA4C
:100390000346002B01D000F071FA00BF5037BD4674
:1003A00080BD00BF003802400070004080B584B0BE
:1003B00000AF3B4600221A605A609A60DA60214B17
:1003C000214A1A601F4B00225A601E4B00229A607D
:1003D0001C4B00221A611B4B00221A76194B00227B
:1003E00083F82020174B0022DA62164B174A9A62D4
:1003F000144B0022DA60134B0122DA61114B002208
:1004000083F830200F4B01225A610E4803F0C8FADE
:100410000346002B01D000F031FA03233B60012397
:100420007B600023BB603B461946064803F024FC72
:100430000346002B01D000F021FA00BF1037BD4663
:1004400080BD00BFD44D0120002001400100000FFD
:1004500080B500AF124B134A1A60114B124A5A6012
:100460000F4B00229A600E4BEE22DA600C4B4FF4D9
:1004700080421A610A4B01225A61094BE0229A61BB
:10048000074B0022DA61064B80221A62044800F012
:100490006DFC0346002B01D000F0F0F900BF80BDD9
:1004A0009048012000540040A086010080B500AFB4
:1004B000174B184A1A60164B4FF482725A60144B4D
:1004C00000229A60124B0022DA60114B00221A615E
:1004D0000F4B00225A610E4B4FF400729A610C4B85
:1004E0001022DA610A4B00221A62094B00225A627A
:1004F000074B00229A62064B0A22DA62044803F094
:1005000023FE0346002B01D000F0B8F900BF80BDE8
:100510001C4D0120003C004080B500AF114B124A39
:100520001A60104B4FF4E1325A600E4B00229A6071
:100530000C4B0022DA600B4B00221A61094B0C2293
:100540005A61084B00229A61064B0022DA61054885
:1005500004F02EF90346002B01D000F08FF900BF04
:1005600080BD00BF504801200048004080B500AF6A
:10057000144B4FF0A0421A60124B04225A60114BE8
:100580000222DA600F4B00221A610E4B02229A619E
:100590000C4B0022DA610B4B00221A62094B00223D
:1005A0005A62084B0122DA62064B00221A630548A0
:1005B00002F002FE0346002B01D000F05FF900BFFD
:1005C00080BD00BF1449012080B582B000AF002378
:1005D0007B600C4B1B6B0B4A43F400131363094BFA
:1005E0001B6B03F400137B607B680022002110204A
:1005F00002F0FCFC102002F025FD00BF0837BD46CC
:1006000080BD00BF0038024080B58CB000AF07F15C
:100610001C0300221A605A609A60DA601A61002393
:10062000BB618E4B1B6B8D4A43F0040313638B4BF2
:100630001B6B03F00403BB61BB6900237B61874B29
:100640001B6B864A43F080031363844B1B6B03F0E0
:1006500080037B617B6900233B61804B1B6B7F4A7E
:1006600043F0010313637D4B1B6B03F001033B61FC
:100670003B690023FB60794B1B6B784A43F0020314
:100680001363764B1B6B03F00203FB60FB680023D4
:10069000BB60724B1B6B714A43F0100313636F4BCB
:1006A0001B6B03F01003BB60BB6800237B606B4BCC
:1006B0001B6B6A4A43F008031363684B1B6B03F020
:1006C00008037B607B68002249F28351644801F093
:1006D00067FE00224FF49861624801F061FE00223B
:1006E0004FF48061604801F05BFE002222215F48E8
:1006F00001F056FE41F20B03FB6100233B62002335
:100700007B6207F11C031946564801F037FB4FF294
:100710008403FB6100233B6200237B6207F11C031F
:100720001946534801F02AFB49F28353FB61012328
:100730003B6200237B620023BB6207F11C03194666
:10074000474801F01BFB4FF6D873FB61494B3B62F6
:1007500000237B6207F11C031946444801F00EFB9D
:100760004FF49863FB6101233B6200237B6200230B
:10077000BB6207F11C0319463A4801F0FFFA4FF437
:100780008073FB613B4B3B6200237B6207F11C03E0
:100790001946344801F0F2FA4FF48063FB610123FB
:1007A0003B6200237B620023BB6207F11C031946F6
:1007B0002D4801F0E3FA0123FB6100233B62002393
:1007C0007B6207F11C031946284801F0D7FA22235F
:1007D000FB6101233B6200237B620023BB6207F1C4
:1007E0001C031946214801F0C9FA0423FB61224B7E
:1007F0003B6200237B6207F11C0319461B4801F092
:10080000BDFA00220021082002F0F0FB082002F0CF
:1008100019FC00220021092002F0E8FB092002F067
:1008200011FC002200210A2002F0E0FB0A2002F065
:1008300009FC00220021172002F0D8FB172002F04B
:1008400001FC00220021282002F0D0FB282002F029
:10085000F9FB00BF3037BD4680BD00BF0038024005
:10086000001002400008024000000240000C02405C
:1008700000040240000011100000311080B400AFED
:1008800000BFBD465DF8047B704780B483B000AF05
:100890007860396000BF0C37BD465DF8047B704757
:1008A00080B400AF00BFBD465DF8047B704780B4E4
:1008B00000AFFEE780B400AFFEE780B400AFFEE714
:1008C00080B400AFFEE780B400AF00BFBD465DF866
:1008D000047B704780B400AF00BFBD465DF8047B69
:1008E000704780B400AF00BFBD465DF8047B704721
:1008F00080B500AF02F01CFC00BF80BD80B500AF2A
:10090000042001F07FFD00BF80BD80B500AF08204E
:1009100001F078FD00BF80BD80B500AF102001F070
:1009200071FD00BF80BD000080B500AF024802F03D
:1009300003F800BF80BD00BF744D012080B500AF3B
:10094000402001F05FFD802001F05CFD4FF48070DD
:1009500001F058FD4FF4007001F054FD00BF80BD60
:1009600080B500AF4FF4806001F04CFD4FF40060A3
:1009700001F048FD4FF4805001F044FD4FF4005069
:1009800001F040FD4FF4804001F03CFD4FF4004089
:1009900001F038FD00BF80BD80B483B000AF0023FC
:1009A0007B60104B5B6C0F4A43F4804353640D4BE8
:1009B0005B6C03F480437B607B6800233B60094BE6
:1009C0001B6C084A43F080531364064B1B6C03F006
:1009D00080533B603B6800BF0C37BD465DF8047B2D
:1009E000704700BF0038024080B58AB000AF786021
:1009F00007F1140300221A605A609A60DA601A61E3
:100A00007B681B68244A934241D100233B61234BFE
:100A10005B6C224A43F480735364204B5B6C03F499
:100A200080733B613B690023FB601C4B1B6B1B4AC3
:100A300043F004031363194B1B6B03F00403FB60C7
:100A4000FB680023BB60154B1B6B144A43F001038A
:100A50001363124B1B6B03F00103BB60BB680423E1
:100A60007B610323BB610023FB6107F1140319467B
:100A70000B4801F083F90D237B610323BB61002345
:100A8000FB6107F114031946064801F077F900BF2E
:100A90002837BD4680BD00BF00200140003802401D
:100AA000000802400000024080B58AB000AF7860C4
:100AB00007F1140300221A605A609A60DA601A6122
:100AC0007B681B68194A93422CD100233B61184B69
:100AD0001B6B174A43F002031363154B1B6B03F0A8
:100AE00002033B613B694FF440737B611223BB619E
:100AF0000123FB6103233B6204237B6207F11403A0
:100B000019460C4801F03AF90023FB60084B1B6CB6
:100B1000074A43F400131364054B1B6C03F40013E2
:100B2000FB60FB6800BF2837BD4680BD0054004015
:100B3000003802400004024080B58AB000AF7860FF
:100B400007F1140300221A605A609A60DA601A6191
:100B50007B681B682F4A934258D100233B612E4B80
:100B60001B6C2D4A43F4004313642B4B1B6C03F4A2
:100B700000433B613B690023FB60274B1B6B264A0C
:100B800043F002031363244B1B6B03F00203FB606F
:100B9000FB6838237B610223BB610023FB610323D5
:100BA0003B6206237B6207F1140319461B4801F0E0
:100BB000E5F81B4B1B4A1A60194B00225A60184B70
:100BC00040229A60164B0022DA60154B4FF4806287
:100BD0001A61134B00225A61114B00229A61104B8B
:100BE0000022DA610E4B00221A620D4B00225A627B
:100BF0000B4801F01FFC0346002B01D0FFF73EFE1F
:100C00007B68074A9A64064A7B68936300BF28376B
:100C1000BD4680BD003C0040003802400004024058
:100C2000744D01208860024080B58AB000AF7860C2
:100C300007F1140300221A605A609A60DA601A61A0
:100C40007B681B68194A93422CD100233B61184BE7
:100C50001B6C174A43F480231364154B1B6C03F47D
:100C600080233B613B690023FB60114B1B6B104AE7
:100C700043F0020313630E4B1B6B03F00203FB6094
:100C8000FB684FF440637B610223BB610023FB617F
:100C900003233B6207237B6207F1140319460548CF
:100CA00001F06CF800BF2837BD4680BD0048004009
:100CB000003802400004024080B58AB000AF78607E
:100CC00007F1140300221A605A609A60DA601A6110
:100CD0007B681B68B3F1A04F3FD100233B61214BE0
:100CE0001B6B204A43F0010313631E4B1B6B03F085
:100CF00001033B613B694FF400737B610023BB61DF
:100D00000023FB6107F114031946174801F036F878
:100D10004FF4C0537B610223BB610023FB610323BB
:100D20003B620A237B6207F1140319460E4801F067
:100D300025F80C4B5B6B0B4A43F080035363002395
:100D4000FB60084B5B6C074A43F480435364054BDC
:100D50005B6C03F48043FB60FB6800BF2837BD4633
:100D600080BD00BF003802400000024080B584B062
:100D700000AF78607B68002B01D10123F9E17B682B
:100D80001B689B4A93420ED07B681B68994A93422A
:100D900009D07B681B68984A934204D040F2BD1189
:100DA0009648FFF772FD7B685B68002B04D07B6878
:100DB0005B68934A934204D94FF4DF718F48FFF781
:100DC00064FD7B689B68002B09D07B689B68B3F54A
:100DD000804F04D040F2BF118848FFF756FD7B6872
:100DE000DB6823F47F7323F00303002B04D04FF45C
:100DF000E0718248FFF749FD7B681B69B3F5804FBE
:100E000009D07B681B69B3F5404F04D040F2C11193
:100E10007A48FFF73AFD7B685B69002B08D07B6856
:100E20005B69012B04D04FF4E1717448FFF72DFD8D
:100E30007B689B6923F0FE03002B04D040F2C311B2
:100E40006E48FFF722FD7B68DB69002B08D07B68CA
:100E5000DB69402B04D04FF4E2716848FFF715FDC1
:100E60007B681B6A002B08D07B681B6A802B04D030
:100E700040F2C5116148FFF708FD7B6893F83D30EB
:100E8000DBB2002B2CD17B68002283F83C207B68EE
:100E90005C4A5A657B685C4A9A657B685B4ADA659E
:100EA0007B685B4A1A667B685A4A5A667B685A4A6C
:100EB0009A667B68594ADA667B68594A1A677B6882
:100EC000584A5A677B68584A9A677B68DB6F002BE1
:100ED00002D17B68554ADA677B68DB6F7868984790
:100EE0007B68242283F83D207B681B681A687B6836
:100EF0001B6822F001021A607B681B681A687B6815
:100F00001B6842F400421A607B681B681A687B68A1
:100F10001B6822F400421A6000F008FFF8607B684A
:100F20005B68434A934207D8FB68424A934294BFA6
:100F300001230023DBB206E0FB683F4A934294BFE3
:100F400001230023DBB2002B01D0012311E1FB6858
:100F50003A4AA2FB03239B0CBB607B681B685B685F
:100F600023F03F017B681B68BA680A435A607B68BC
:100F70001B681B6A23F03F017B685B682C4A934225
:100F800002D8BB68013309E0BB684FF4967202FBDC
:100F900003F32B4AA2FB03239B0901337A681268EF
:100FA0000B4313627B681B68DB6923F44F4222F01A
:100FB000FF027B685B681E498B4243D8FB68591E61
:100FC0007B685B685B00B1FBF3F3591C40F6FC7374
:100FD0000B40002B0AD0FB68591E7B685B685B00E6
:100FE000B1FBF3F30133C3F30B037BE0042379E09C
:100FF0000054004000580040005C0040B48B0008E2
:10100000801A06007D11000891110008A511000842
:10101000B9110008E9110008FD11000811120008BB
:101020002512000839120008CD110008A90A00088D
:10103000A08601007F841E00FF083D0083DE1B4365
:10104000D34D62107B689B68002B11D1FB68581E42
:101050007B6859680B465B000B44B0FBF3F301332C
:10106000C3F30B03002B0CBF01230023DBB212E000
:10107000FB68581E7B6859680B469B000B4499001F
:101080000B44B0FBF3F30133C3F30B03002B0CBF92
:1010900001230023DBB2002B01D0012322E07B6877
:1010A0009B68002B0ED1FB68581E7B6859680B4665
:1010B0005B000B44B0FBF3F30133C3F30B0343F4C6
:1010C00000430FE0FB68581E7B6859680B469B0085
:1010D0000B4499000B44B0FBF3F30133C3F30B0350
:1010E00043F44043796809681343CB617B681B680C
:1010F0001B6823F0C0017B68DA697B681B6A1A43AE
:101100007B681B680A431A607B681B689B6823F432
:10111000034323F0FF037A6811697A68D2681143A8
:101120007A6812680B4393607B681B68DB6823F066
:10113000FF017B685A697B689B691A437B681B685F
:101140000A43DA607B681B681A687B681B6842F098
:1011500001021A607B6800221A647B68202283F8EF
:101160003D207B6800221A637B68002283F83E20C2
:10117000002318461037BD4680BD00BF80B483B041
:1011800000AF786000BF0C37BD465DF8047B704748
:1011900080B483B000AF786000BF0C37BD465DF807
:1011A000047B704780B483B000AF786000BF0C3719
:1011B000BD465DF8047B704780B483B000AF7860B3
:1011C00000BF0C37BD465DF8047B704780B483B028
:1011D00000AF78600B46FB7013463B8000BF0C37B6
:1011E000BD465DF8047B704780B483B000AF786083
:1011F00000BF0C37BD465DF8047B704780B483B0F8
:1012000000AF786000BF0C37BD465DF8047B7047C7
:1012100080B483B000AF786000BF0C37BD465DF886
:10122000047B704780B483B000AF786000BF0C3798
:10123000BD465DF8047B704780B483B000AF786032
:1012400000BF0C37BD465DF8047B704780B586B0A3
:1012500000AF78607B68002B01D101230DE37B6830
:101260001B680F2B03D9E821A348FFF70EFB7B680F
:101270001B6803F00103002B00F088807B685B682B
:10128000002B0DD07B685B68B3F5803F08D07B688E
:101290005B68B3F5A02F03D0ED219748FFF7F5FA6F
:1012A000964B9B6803F00C03042B0CD0934B9B686C
:1012B00003F00C03082B12D1904B5B6803F48003FE
:1012C000B3F5800F0BD18D4B1B6803F40033002B5B
:1012D0005BD07B685B68002B57D10123CDE27B6834
:1012E0005B68B3F5803F06D1844B1B68834A43F4A7
:1012F000803313601DE07B685B68B3F5A02F0CD1D1
:101300007E4B1B687D4A43F4802313607B4B1B6834
:101310007A4A43F4803313600BE0784B1B68774ABA
:1013200023F480331360754B1B68744A23F48023C5
:1013300013607B685B68002B13D001F00DFF3861F0
:1013400008E001F009FF02463B69D31A642B01D97A
:10135000032392E2694B1B6803F40033002BF0D0A7
:1013600014E001F0F9FE386108E001F0F5FE0246F4
:101370003B69D31A642B01D903237EE25F4B1B68C0
:1013800003F40033002BF0D100E000BF7B681B6842
:1013900003F00203002B79D07B68DB68002B08D0B8
:1013A0007B68DB68012B04D040F21F115248FFF725
:1013B0006CFA7B681B691F2B04D94FF490714E485F
:1013C000FFF763FA4D4B9B6803F00C03002B0BD027
:1013D0004A4B9B6803F00C03082B1CD1474B5B68FE
:1013E00003F48003002B16D1444B1B6803F0020367
:1013F000002B05D07B68DB68012B01D001233CE288
:101400003E4B1B6823F0F8027B681B69DB003B49FD
:1014100013430B603AE07B68DB68002B20D0384B2D
:1014200001221A6001F098FE386108E001F094FE94
:1014300002463B69D31A022B01D903231DE22F4B2D
:101440001B6803F00203002BF0D02C4B1B6823F029
:10145000F8027B681B69DB00284913430B6015E029
:10146000274B00221A6001F077FE386108E001F096
:1014700073FE02463B69D31A022B01D90323FCE118
:101480001E4B1B6803F00203002BF0D17B681B6826
:1014900003F00803002B46D07B685B69002B08D063
:1014A0007B685B69012B04D04FF4B0711248FFF7E1
:1014B000ECF97B685B69002B16D0124B01221A6095
:1014C00001F04AFE386108E001F046FE02463B6941
:1014D000D31A022B01D90323CFE1084B5B6F03F032
:1014E0000203002BF0D01EE0064B00221A6001F030
:1014F00033FE386111E000BFEC8B00080038024079
:1015000000004742800E474201F026FE02463B693A
:10151000D31A022B01D90323AFE1974B5B6F03F082
:101520000203002BF0D17B681B6803F00403002B3F
:1015300000F0A8800023FB757B689B68002B0CD013
:101540007B689B68012B08D07B689B68052B04D0C7
:101550004FF4C6718948FFF798F9874B1B6C03F06D
:101560008053002B0FD10023BB60834B1B6C824A3E
:1015700043F080531364804B1B6C03F08053BB60BB
:10158000BB680123FB757E4B1B6803F48073002B43
:1015900018D17B4B1B687A4A43F48073136001F0C7
:1015A000DBFD386108E001F0D7FD02463B69D31A44
:1015B000022B01D9032360E1714B1B6803F4807394
:1015C000002BF0D07B689B68012B06D16A4B1B6F08
:1015D000694A43F0010313671CE07B689B68052B95
:1015E0000CD1654B1B6F644A43F004031367624BD5
:1015F0001B6F614A43F0010313670BE05E4B1B6FE7
:101600005D4A23F0010313675B4B1B6F5A4A23F0BB
:10161000040313677B689B68002B15D001F09CFDC9
:1016200038610AE001F098FD02463B69D31A41F2A5
:101630008832934201D903231FE14F4B1B6F03F004
:101640000203002BEED014E001F086FD38610AE0C1
:1016500001F082FD02463B69D31A41F2883293427F
:1016600001D9032309E1444B1B6F03F00203002B54
:10167000EED1FB7D012B05D13F4B1B6C3E4A23F085
:10168000805313647B689B69002B0CD07B689B693B
:10169000012B08D07B689B69022B04D040F2CF114C
:1016A0003648FFF7F2F87B689B69002B00F0E48076
:1016B000314B9B6803F00C03082B00F0AE807B6875
:1016C0009B69022B40F092807B68DB69002B09D07C
:1016D0007B68DB69B3F5800F04D04FF4EC712748C9
:1016E000FFF7D3F87B681B6A3F2B04D940F2D9116E
:1016F0002248FFF7CAF87B685B6A312B04D97B6804
:101700005B6AB3F5D87F04D94FF4ED711B48FFF73E
:10171000BCF87B689B6A022B10D07B689B6A042B09
:101720000CD07B689B6A062B08D07B689B6A082BD1
:1017300004D040F2DB111148FFF7A7F87B68DB6AA1
:10174000012B03D97B68DB6A0F2B04D94FF4EE71B0
:101750000A48FFF79AF80B4B00221A6001F0FCFCD4
:10176000386111E001F0F8FC02463B69D31A022B04
:101770000AD9032381E000BF00380240EC8B000847
:1017800000700040600047423E4B1B6803F000734E
:10179000002BE7D17B68DA697B681B6A1A437B6898
:1017A0005B6A9B011A437B689B6A5B08013B1B04D5
:1017B0001A437B68DB6A1B06324913434B60324B8A
:1017C00001221A6001F0C8FC386108E001F0C4FC95
:1017D00002463B69D31A022B01D903234DE0294B62
:1017E0001B6803F00073002BF0D045E0264B00226D
:1017F0001A6001F0B1FC386108E001F0ADFC02466E
:101800003B69D31A022B01D9032336E01D4B1B6819
:1018100003F00073002BF0D12EE07B689B69012B55
:1018200001D1012329E0174B5B68FB60FB6803F4DF
:1018300080027B68DB699A421CD1FB6803F03F029F
:101840007B681B6A9A4215D1FA6847F6C073134049
:101850007A68526A93420DD1FB6803F440327B6888
:101860009B6A9A4206D1FB6803F070627B68DB6A70
:101870009A4201D0012300E0002318461837BD46E4
:1018800080BD00BF003802406000474280B584B090
:1018900000AF786039607B68002B01D1012374E1CF
:1018A0007B681B68002B03D07B681B680F2B04D957
:1018B00040F251217B48FEF7E8FF3B68002B19D02E
:1018C0003B68012B16D03B68022B13D03B68032BDF
:1018D00010D03B68042B0DD03B68052B0AD03B6829
:1018E000062B07D03B68072B04D040F252216D48ED
:1018F000FEF7CBFF6C4B1B6803F00F033A689A426C
:101900000CD9694B3A68D2B21A70674B1B6803F066
:101910000F033A689A4201D0012336E17B681B68C5
:1019200003F00203002B49D07B681B6803F004031B
:10193000002B05D05D4B9B685C4A43F4E0539360F9
:101940007B681B6803F00803002B05D0574B9B688E
:10195000564A43F4604393607B689B68002B24D015
:101960007B689B68802B20D07B689B68902B1CD069
:101970007B689B68A02B18D07B689B68B02B14D029
:101980007B689B68C02B10D07B689B68D02B0CD0E9
:101990007B689B68E02B08D07B689B68F02B04D0A9
:1019A00040F275213F48FEF770FF404B9B6823F0E3
:1019B000F0027B689B683D4913438B607B681B6822
:1019C00003F00103002B59D07B685B68002B10D01B
:1019D0007B685B68012B0CD07B685B68022B08D0AE
:1019E0007B685B68032B04D04FF41F712D48FEF712
:1019F0004CFF7B685B68012B07D12C4B1B6803F401
:101A00000033002B19D10123BFE07B685B68022BF8
:101A100003D07B685B68032B07D1244B1B6803F062
:101A20000073002B09D10123AFE0204B1B6803F0AA
:101A30000203002B01D10123A7E01C4B9B6823F07C
:101A400003027B685B68194913438B6001F084FBD8
:101A5000F8600AE001F080FB0246FB68D31A41F20D
:101A60008832934201D903238FE0104B9B6803F027
:101A70000C027B685B689B009A42EBD10A4B1B68A7
:101A800003F00F033A689A4212D2074B3A68D2B277
:101A90001A70054B1B6803F00F033A689A4207D08F
:101AA000012372E0EC8B0008003C02400038024049
:101AB0007B681B6803F00403002B25D07B68DB6880
:101AC000002B18D07B68DB68B3F5805F13D07B6890
:101AD000DB68B3F5A05F0ED07B68DB68B3F5C05F51
:101AE00009D07B68DB68B3F5E05F04D040F2BA212F
:101AF0002848FEF7CAFE284B9B6823F4E0527B6817
:101B0000DB68254913438B607B681B6803F008037F
:101B1000002B26D07B681B69002B18D07B681B69C3
:101B2000B3F5805F13D07B681B69B3F5A05F0ED05F
:101B30007B681B69B3F5C05F09D07B681B69B3F58F
:101B4000E05F04D040F2C1211248FEF79EFE124B26
:101B50009B6823F460427B681B69DB000E491343DA
:101B60008B6000F021F802460B4B9B681B0903F0C9
:101B70000F030A49CB5C22FA03F3094A1360094BAD
:101B80001B68184601F0A4FA002318461037BD461A
:101B900080BD00BFEC8B000800380240348E000886
:101BA0000C00002004000020B0B584B000AF00217C
:101BB00079600021F960002139600021B960524943
:101BC000896801F00C0108290DD0082900F29480E1
:101BD000002902D0042903D08EE04C4BBB608EE07C
:101BE0004B4BBB608BE04849496801F03F0179608D
:101BF0004549496801F48001002924D042494968D7
:101C0000890908464FF0000140F2FF144FF000052B
:101C100000EA040201EA05033D4901FB03F000214B
:101C200001FB02F144183A49A2FB0101631819466D
:101C30007B681A464FF00003FEF7FAFA02460B469D
:101C40001346FB604AE0304B5B689B091A464FF035
:101C5000000340F2FF104FF0000102EA000403EA23
:101C60000105204629464FF000024FF000034B01CA
:101C700043EAD063420110461946001B61EB05019F
:101C80004FF000024FF000038B0143EA90638201A2
:101C9000121A63EB01034FF000004FF00001D9006E
:101CA00041EA5271D00002460B46121945EB03037C
:101CB0004FF000004FF00001990241EA925190026A
:101CC00002460B46104619467B681A464FF0000341
:101CD000FEF7AEFA02460B461346FB600A4B5B6802
:101CE0001B0C03F0030301335B003B60FA683B68A5
:101CF000B2FBF3F3BB6002E0044BBB6000BFBB6808
:101D000018461037BD46B0BD003802400024F4002C
:101D100040787D0180B400AF034B1B681846BD4678
:101D20005DF8047B704700BF0C00002080B500AF59
:101D3000FFF7F0FF0246054B9B689B0A03F0070381
:101D40000349CB5C22FA03F3184680BD00380240F9
:101D5000448E000880B500AFFFF7DCFF0246054B5C
:101D60009B685B0B03F007030349CB5C22FA03F388
:101D7000184680BD00380240448E000880B588B007
:101D800000AF7860396000237B6100233B61002352
:101D9000BB617B68414A934223D07B68404A9342AF
:101DA0001FD07B683F4A93421BD07B683E4A9342D8
:101DB00017D07B683D4A934213D07B683C4A9342DC
:101DC0000FD07B683B4A93420BD07B683A4A9342E0
:101DD00007D07B68394A934203D0B3213848FEF7D5
:101DE00054FD3B681B689BB2002B05D03B681B6809
:101DF0001B0C1B04002B03D0B4213148FEF745FD1A
:101E00003B685B68002B35D03B685B68012B31D0A9
:101E10003B685B68112B2DD03B685B68022B29D097
:101E20003B685B68122B25D03B685B68254A934270
:101E300020D03B685B68244A93421BD03B685B68B8
:101E4000224A934216D03B685B68214A934211D0E4
:101E50003B685B681F4A93420CD03B685B681E4A34
:101E6000934207D03B685B68032B03D0B52114482D
:101E7000FEF70BFD3B689B68002B0BD03B689B6813
:101E8000012B07D03B689B68022B03D0B6210C487E
:101E9000FEF7FBFC0023FB613FE200BF00000240B5
:101EA0000004024000080240000C02400010024002
:101EB0000014024000180240001C024000200240B2
:101EC000248C0008000011100000211000003110C7
:101ED0000000121000002210000032100122FB69E5
:101EE00002FA03F37B613B681B687A6913403B612C
:101EF0003A697B699A4240F00D823B685B68012B2E
:101F00000BD03B685B68022B07D03B685B68112BEA
:101F100003D03B685B68122B44D13B68DB68002B25
:101F20000FD03B68DB68012B0BD03B68DB68022BD2
:101F300007D03B68DB68032B03D0C8219F48FEF71E
:101F4000A4FC7B689B68BB61FB695B00032202FA0F
:101F500003F3DB43BA691340BB613B68DA68FB6992
:101F60005B0002FA03F3BA691343BB617B68BA6989
:101F70009A607B685B68BB610122FB6902FA03F32C
:101F8000DB43BA691340BB613B685B681B0903F024
:101F90000102FB6902FA03F3BA691343BB617B6870
:101FA000BA695A607B68DB68BB61FB695B0003222E
:101FB00002FA03F3DB43BA691340BB613B689A68DA
:101FC000FB695B0002FA03F3BA691343BB617B68E8
:101FD000BA69DA603B685B68022B04D03B685B68D7
:101FE000122B40F0BC803B681B69002B00F09380F3
:101FF0003B681B69092B00F08E803B681B69002B36
:1020000000F089803B681B69002B00F084803B68EE
:102010001B69002B7FD03B681B69002B7BD03B6882
:102020001B69012B77D03B681B69012B73D03B6880
:102030001B69022B6FD03B681B69022B6BD03B687E
:102040001B69022B67D03B681B69032B63D03B687D
:102050001B69042B5FD03B681B69042B5BD03B687A
:102060001B69042B57D03B681B69052B53D03B6879
:102070001B69052B4FD03B681B69092B4BD03B6874
:102080001B69062B47D03B681B69092B43D03B6873
:102090001B69072B3FD03B681B69072B3BD03B6874
:1020A0001B69072B37D03B681B69082B33D03B6873
:1020B0001B69082B2FD03B681B69082B2BD03B6872
:1020C0001B69092B27D03B681B69092B23D03B6870
:1020D0001B690A2B1FD03B681B690A2B1BD03B686E
:1020E0001B690B2B17D03B681B690C2B13D03B686B
:1020F0001B690C2B0FD03B681B690D2B0BD03B6869
:102100001B690C2B07D03B681B690F2B03D0E02108
:102110002A48FEF7BAFBFB69DA087B68083253F8F5
:102120002230BB61FB6903F007039B000F2202FA18
:1021300003F3DB43BA691340BB613B681A69FB696F
:1021400003F007039B0002FA03F3BA691343BB6170
:10215000FB69DA087B680832B96943F822107B68AA
:102160001B68BB61FB695B00032202FA03F3DB43DC
:10217000BA691340BB613B685B6803F00302FB690B
:102180005B0002FA03F3BA691343BB617B68BA6967
:102190001A603B685B6803F08053002B00F0BA8044
:1021A0000023FB60064B5B6C054A43F48043536499
:1021B000034B5B6C03F4804304E000BF248C0008F5
:1021C00000380240FB60FB68584AFB699B080233F9
:1021D00052F82330BB61FB6903F003039B000F221D
:1021E00002FA03F3DB43BA691340BB617B68504AD0
:1021F00093422BD07B684F4A934225D07B684E4A4E
:1022000093421FD07B684D4A934219D07B684C4A59
:10221000934213D07B684B4A93420DD07B684A4A65
:10222000934207D07B68494A934201D107230EE0CD
:1022300008230CE006230AE0052308E0042306E057
:10224000032304E0022302E0012300E00023FA69F3
:1022500002F0030292009340BA691343BB61334911
:10226000FB699B080233BA6941F82320384B1B688D
:10227000BB613B69DB43BA691340BB613B685B6888
:1022800003F48033002B03D0BA693B691343BB616D
:102290002F4ABB6913602E4B5B68BB613B69DB4314
:1022A000BA691340BB613B685B6803F40033002BE1
:1022B00003D0BA693B691343BB61254ABB695360CC
:1022C000234B9B68BB613B69DB43BA691340BB612D
:1022D0003B685B6803F48013002B03D0BA693B6949
:1022E0001343BB611A4ABB699360194BDB68BB613E
:1022F0003B69DB43BA691340BB613B685B6803F42D
:102300000013002B03D0BA693B691343BB61104A29
:10231000BB69D360FB690133FB61FB690F2B7FF65F
:10232000DDAD00BF00BF2037BD4680BD0038014095
:10233000000002400004024000080240000C02407D
:10234000001002400014024000180240001C02402D
:10235000003C014080B584B000AF78600B467B80C4
:102360007B88002B04D07B881B0C1B04002B04D023
:102370004FF4BF710948FEF788FA7B681A697B88B9
:102380001340002B02D00123FB7301E00023FB73F9
:10239000FB7B18461037BD4680BD00BF248C00086B
:1023A00080B582B000AF78600B467B8013467B70AF
:1023B0007B88002B04D07B881B0C1B04002B04D0D3
:1023C00040F29F110E48FEF760FA7B78002B07D091
:1023D0007B78012B04D04FF4D0710948FEF755FAF1
:1023E0007B78002B03D07A887B689A6103E07B8836
:1023F0001A047B689A6100BF0837BD4680BD00BFE4
:10240000248C000880B582B000AF0346FB80084BE7
:102410005A69FB881340002B06D0054AFB8853619C
:10242000FB88184603F02AFD00BF0837BD4680BD73
:10243000003C014080B586B000AF786000237B612E
:1024400000F08AFE38617B68002B01D1012304E291
:102450007B681B68974A93424ED07B681B68964AFC
:10246000934249D07B681B68944A934244D07B686E
:102470001B68934A93423FD07B681B68914A934202
:102480003AD07B681B68904A934235D07B681B68C2
:102490008E4A934230D07B681B688D4A93422BD082
:1024A0007B681B688B4A934226D07B681B688A4AEC
:1024B000934221D07B681B68884A93421CD07B687A
:1024C0001B68874A934217D07B681B68854A9342F2
:1024D00012D07B681B68844A93420DD07B681B68CE
:1024E000824A934208D07B681B68814A934203D09A
:1024F000B8218048FEF7C9F97B685B68002B26D0BD
:102500007B685B68B3F1007F21D07B685B68B3F1C7
:10251000806F1CD07B685B68B3F1C06F17D07B689D
:102520005B68B3F1006F12D07B685B68B3F1206F1A
:102530000DD07B685B68B3F1406F08D07B685B6847
:10254000B3F1606F03D0B9216A48FEF79EF97B684A
:102550009B68002B0BD07B689B68402B07D07B6867
:102560009B68802B03D0BA216248FEF78EF97B6806
:10257000DB68B3F5007F07D07B68DB68002B03D0F6
:10258000BB215C48FEF781F97B681B69B3F5806F5E
:1025900007D07B681B69002B03D0BC215548FEF790
:1025A00074F97B685B69002B0DD07B685B69B3F5C0
:1025B000006F08D07B685B69B3F5805F03D0BD21F5
:1025C0004C48FEF762F97B689B69002B0DD07B6855
:1025D0009B69B3F5005F08D07B689B69B3F5804FBA
:1025E00003D0BE214348FEF750F97B68DB69002B1E
:1025F0000CD07B68DB69B3F5807F07D07B68DB6933
:10260000202B03D0BF213B48FEF73FF97B681B6AB4
:10261000002B12D07B681B6AB3F5803F0DD07B681E
:102620001B6AB3F5003F08D07B681B6AB3F5403FD7
:1026300003D0C0212F48FEF728F97B685B6A002B86
:1026400007D07B685B6A042B03D0C1212948FEF7C1
:102650001CF97B685B6A002B65D07B689B6A002B4A
:102660000FD07B689B6A012B0BD07B689B6A022B87
:1026700007D07B689B6A032B03D0C6211D48FEF759
:1026800004F97B68DB6A002B36D07B68DB6AB3F524
:10269000000F31D07B68DB6AB3F1807F2CD07B6880
:1026A000DB6AB3F1C07F27D0C7211248FEF7EDF8EF
:1026B00022E000BF106002402860024040600240FB
:1026C000586002407060024088600240A060024092
:1026D000B860024010640240286402404064024036
:1026E000586402407064024088640240A064024062
:1026F000B86402405C8C00087B681B6B002B12D016
:102700007B681B6BB3F5001F0DD07B681B6BB3F5AB
:10271000800F08D07B681B6BB3F5C00F03D0C821B6
:102720005048FEF7B2F87B68002283F834207B68BB
:10273000022283F835207B681B681A687B681B6857
:1027400022F001021A600FE000F006FD02463B692C
:10275000D31A052B08D97B6820225A657B6803228F
:1027600083F83520032378E07B681B681B6803F03F
:102770000103002BE8D17B681B681B687B617A69C9
:10278000394B13407B617B685A687B689B681A43AE
:102790007B68DB681A437B681B691A437B685B694B
:1027A0001A437B689B691A437B68DB691A437B6821
:1027B0001B6A13437A6913437B617B685B6A042B52
:1027C00007D17B68DA6A7B681B6B13437A69134312
:1027D0007B617B681B687A691A607B681B685B6930
:1027E0007B617B6923F007037B617B685B6A7A69A5
:1027F00013437B617B685B6A042B17D17B689B6A00
:102800007A6913437B617B68DB6A002B0ED07868A2
:1028100000F080FA0346002B08D07B6840225A65FE
:102820007B68012283F83520012316E07B681B6852
:102830007A695A61786800F037FA0346FB607B6872
:10284000DB6D3F229A40FB689A607B6800225A65E4
:102850007B68012283F83520002318461837BD46CF
:1028600080BD00BF5C8C00083F8010F080B586B052
:1028700000AFF860B9607A603B600023FB75FB68CD
:102880009B6D3B613B68002B03D03B68B3F5803FF9
:1028900004D34FF4E6712748FDF7F7FFFB6893F880
:1028A0003430012B01D1022340E0FB68012283F880
:1028B0003420FB6893F83530DBB2012B2FD1FB6855
:1028C000022283F83520FB6800225A653B687A684B
:1028D000B968F86800F0BAF9FB68DB6D3F229A40EE
:1028E0003B699A60FB681B681A68FB681B6842F0CA
:1028F00016021A60FB681B6C002B07D0FB681B6874
:102900001A68FB681B6842F008021A60FB681B68C3
:102910001A68FB681B6842F001021A6005E0FB6858
:10292000002283F834200223FB75FB7D18461837FC
:10293000BD4680BD5C8C000880B586B000AF786075
:102940000023BB60924B1B68924AA2FB03239B0AA5
:102950007B617B689B6D3B613B691B68FB607B68AF
:10296000DB6D08229A40FB681340002B1AD07B686D
:102970001B681B6803F00403002B13D07B681B68E3
:102980001A687B681B6822F004021A607B68DB6DA2
:1029900008229A403B699A607B685B6D43F00102B4
:1029A0007B685A657B68DB6D01229A40FB681340A7
:1029B000002B12D07B681B685B6903F08003002B3F
:1029C0000BD07B68DB6D01229A403B699A607B6883
:1029D0005B6D43F002027B685A657B68DB6D042205
:1029E0009A40FB681340002B12D07B681B681B6861
:1029F00003F00203002B0BD07B68DB6D04229A40AE
:102A00003B699A607B685B6D43F004027B685A65A2
:102A10007B68DB6D10229A40FB681340002B43D08B
:102A20007B681B681B6803F00803002B3CD07B68A5
:102A3000DB6D10229A403B699A607B681B681B68BB
:102A400003F48023002B18D07B681B681B6803F4F9
:102A50000023002B08D17B681B6C002B24D07B68E3
:102A60001B6C786898471FE07B689B6C002B1BD021
:102A70007B689B6C7868984716E07B681B681B68CE
:102A800003F48073002B07D17B681B681A687B688E
:102A90001B6822F008021A607B681B6C002B03D0B5
:102AA0007B681B6C786898477B68DB6D20229A40B6
:102AB000FB681340002B00F08E807B681B681B684E
:102AC00003F01003002B00F086807B68DB6D202272
:102AD0009A403B699A607B6893F83530DBB2052BEE
:102AE00036D17B681B681A687B681B6822F0160267
:102AF0001A607B681B685A697B681B6822F0800239
:102B00005A617B681B6C002B03D17B689B6C002B8C
:102B100007D07B681B681A687B681B6822F0080274
:102B20001A607B68DB6D3F229A403B699A607B6844
:102B3000002283F834207B68012283F835207B68EB
:102B40001B6D002B7DD07B681B6D7868984778E003
:102B50007B681B681B6803F48023002B1CD07B68F8
:102B60001B681B6803F40023002B08D17B685B6C97
:102B7000002B30D07B685B6C786898472BE07B68D3
:102B8000DB6B002B27D07B68DB6B7868984722E0F3
:102B90000C000020B5814E1B7B681B681B6803F48A
:102BA0008073002B0FD17B681B681A687B681B68D9
:102BB00022F010021A607B68002283F834207B68C0
:102BC000012283F835207B68DB6B002B03D07B6808
:102BD000DB6B786898477B685B6D002B32D07B6835
:102BE0005B6D03F00103002B22D07B68052283F884
:102BF00035207B681B681A687B681B6822F001021D
:102C00001A60BB680133BB607A699A4207D37B685C
:102C10001B681B6803F00103002BF2D100E000BF2A
:102C20007B68002283F834207B68012283F83520FA
:102C30007B68DB6C002B05D07B68DB6C7868984781
:102C400000E000BF1837BD4680BD00BF80B485B02E
:102C500000AFF860B9607A603B60FB681B681A6877
:102C6000FB681B6822F480221A60FB681B683A68C4
:102C70005A60FB689B68402B08D1FB681B687A6828
:102C80009A60FB681B68BA68DA6007E0FB681B683B
:102C9000BA689A60FB681B687A68DA6000BF14370C
:102CA000BD465DF8047B704780B485B000AF7860A6
:102CB0007B681B68DBB2103B144AA2FB03231B0991
:102CC000FB60134AFB6813441B781A467B68DA657D
:102CD000FB68032B09D97B681B6823F47F7323F0FF
:102CE00003031A1D7B689A6507E07B681B6823F461
:102CF0007F7323F003037A6893657B689B6D1846A6
:102D00001437BD465DF8047B704700BFABAAAAAA82
:102D10002C8E000880B485B000AF78600023FB7370
:102D20007B689B6ABB607B689B69002B1FD1BB687B
:102D3000032B56D801A252F823F000BF4D2D0008F6
:102D40005F2D00084D2D0008E32D00087B68DB6A2D
:102D500003F08073002B46D00123FB7343E07B68B4
:102D6000DB6AB3F1C07F40D10123FB733DE07B6898
:102D70009B69B3F5005F21D1BB68032B37D801A253
:102D800052F823F0952D00089B2D0008952D000882
:102D9000AD2D00080123FB7330E07B68DB6A03F094
:102DA0008073002B25D00123FB7322E07B68DB6A54
:102DB000B3F1C07F1FD10123FB731CE0BB68022B62
:102DC00003D9BB68032B03D018E00123FB7315E084
:102DD0007B68DB6A03F08073002B0ED00123FB734A
:102DE0000BE000BF0AE000BF08E000BF06E000BF44
:102DF00004E000BF02E000BF00E000BFFB7B18461C
:102E00001437BD465DF8047B704700BF80B485B0C1
:102E100000AF78607B6803F00703FB600C4BDB6856
:102E2000BB60BA684FF6FF031340BB60FB681A0231
:102E3000BB68134343F0BF6343F40033BB60044AF1
:102E4000BB68D36000BF1437BD465DF8047B704794
:102E500000ED00E080B400AF044BDB681B0A03F018
:102E600007031846BD465DF8047B704700ED00E09F
:102E700080B483B000AF0346FB7197F90730002B95
:102E80000BDBFB7903F01F02074997F907305B0959
:102E9000012000FA02F241F8232000BF0C37BD46A2
:102EA0005DF8047B704700BF00E100E080B483B0B0
:102EB00000AF03463960FB7197F90730002B0ADB3E
:102EC0003B68DAB20C4997F907301201D2B20B44D1
:102ED00083F800230AE03B68DAB20849FB7903F083
:102EE0000F03043B1201D2B20B441A7600BF0C3719
:102EF000BD465DF8047B704700E100E000ED00E0B6
:102F000080B489B000AFF860B9607A60FB6803F004
:102F10000703FB61FB69C3F10703042B28BF0423EC
:102F2000BB61FB690433062B02D9FB69033B00E05C
:102F300000237B614FF0FF32BB6902FA03F3DA43EF
:102F4000BB681A407B699A404FF0FF317B6901FAF8
:102F500003F3D9437B680B40134318462437BD461F
:102F60005DF8047B7047000080B582B000AF7860E8
:102F70007B68013BB3F1807F01D301230FE00A4A54
:102F80007B68013B53600F214FF0FF30FFF78EFF4E
:102F9000054B00229A60044B07221A600023184652
:102FA0000837BD4680BD00BF10E000E080B582B0AC
:102FB00000AF78607B68072B0FD07B68062B0CD0A6
:102FC0007B68052B09D07B68042B06D07B68032B1C
:102FD00003D092210448FDF758FC7868FFF716FFEC
:102FE00000BF0837BD4680BD948C000880B586B010
:102FF00000AF0346B9607A60FB7300237B617B6896
:103000000F2B03D9AA210E48FDF73FFCBB680F2BFD
:1030100003D9AB210A48FDF738FCFFF71BFF7861A5
:103020007A68B9687869FFF76BFF024697F90F3045
:1030300011461846FFF73AFF00BF1837BD4680BD5E
:10304000948C000880B582B000AF0346FB7197F9FD
:103050000730002B03DABE210548FDF716FC97F96F
:1030600007301846FFF704FF00BF0837BD4680BD94
:10307000948C000880B582B000AF78607868FFF764
:1030800073FF034618460837BD4680BD80B500AFC4
:103090000E4B1B680D4A43F4007313600B4B1B6807
:1030A0000A4A43F480631360084B1B68074A43F4E1
:1030B000807313600320FFF779FF002000F008F809
:1030C000FDF76AFC0023184680BD00BF003C0240AB
:1030D00080B582B000AF7860124B1A68124B1B7833
:1030E00019464FF47A73B3FBF1F3B2FBF3F31846CE
:1030F000FFF7C0FF0346002B01D001230EE07B68E1
:103100000F2B0AD8002279684FF0FF30FFF76EFFCF
:10311000064A7B681360002300E001231846083745
:10312000BD4680BD0C0000200800002004000020E7
:1031300080B400AF064B1B781A46064B1B6813443D
:10314000044A136000BFBD465DF8047B704700BFB2
:10315000080000201C4E012080B400AF034B1B6808
:103160001846BD465DF8047B704700BF1C4E012029
:1031700080B584B000AF7860FFF7EEFFB8607B6881
:10318000FB60FB68B3F1FF3F05D00A4B1B781A4682
:10319000FB681344FB6000BFFFF7DEFF0246BB681D
:1031A000D31AFA689A42F7D800BF00BF1037BD465D
:1031B00080BD00BF08000020F0B58FB00AAF786076
:1031C0007B68002B01D101231DE17B681B68B3F1F3
:1031D000A04F08D07B681B688D4A934203D087219B
:1031E0008C48FDF752FB7B681B68BB607B6893F8DB
:1031F000BD33DBB2002B06D17B68002283F8BC23F1
:103200007868FDF759FD7B68032283F8BD23BB680E
:10321000DB6B03F48073002B02D17B6800221A6100
:103220007B681B68184600F058F97B681B683B6098
:103230007E686D4606F110040FCC0FC50FCC0FC58C
:1032400094E8030085E80300331D0ECB386800F0D6
:10325000E3F80346002B05D07B68022283F8BD23E8
:103260000123D0E07B681B680021184600F046F976
:103270000023FB734AE0FA7B79681346DB009B1A54
:103280009B000B443D3301221A70FA7B7968134688
:10329000DB009B1A9B000B443C33FA7B1A70FA7BD1
:1032A000FB7B98B279681346DB009B1A9B000B44AA
:1032B000423302461A80FA7B79681346DB009B1A78
:1032C0009B000B443F3300221A70FA7B7968134647
:1032D000DB009B1A9B000B44443300221A60FA7BEC
:1032E00079681346DB009B1A9B000B44483300228D
:1032F0001A60FA7B79681346DB009B1A9B000B442B
:10330000503300221A60FB7B0133FB73FA7B7B682E
:103310005B689A42AFD30023FB7344E0FA7B796881
:103320001346DB009B1A9B000B4403F2FD130022A3
:103330001A70FA7B79681346DB009B1A9B000B44DA
:1033400003F5FE73FA7B1A70FA7B79681346DB008B
:103350009B1A9B000B4403F2FF1300221A70FA7BA6
:1033600079681346DB009B1A9B000B4403F501733D
:1033700000221A60FA7B79681346DB009B1A9B00D7
:103380000B4403F5027300221A60FA7B7968134636
:10339000DB009B1A9B000B4403F5047300221A60A8
:1033A000FB7B0133FB73FA7B7B685B689A42B5D386
:1033B0007B681B683B607E686D4606F110040FCC8D
:1033C0000FC50FCC0FC594E8030085E80300331D3B
:1033D0000ECB386800F0BCF80346002B05D07B68A4
:1033E000022283F8BD2301230DE07B68002283F8CD
:1033F00038207B68012283F8BD237B681B68184650
:1034000000F06BFA002318461437BD46F0BD00BF2C
:1034100000000440CC8C000884B080B584B000AFBC
:10342000786007F11C0080E80E003B6B012B22D175
:103430007B689B6B23F480327B689A637B68DB68D4
:1034400023F4840323F040037A68D3607B68DB684D
:1034500023F440127B68DA60FB6C012B05D17B689A
:10346000DB6843F480127B68DA60786800F04EFA1B
:103470000346FB731AE07B68DB6843F040027B681D
:10348000DA60786800F042FA0346FB733B6C002B6D
:1034900006D17B689B6B43F480327B689A6305E0BE
:1034A0007B689B6B23F480327B689A63BB6A012B39
:1034B0000BD17B689B6843F006027B689A607B684F
:1034C0009B6843F020027B689A60FB7B18461037AC
:1034D000BD46BDE8804004B0704780B483B000AF03
:1034E00078607B689B6823F001027B689A60002308
:1034F00018460C37BD465DF8047B704780B582B036
:1035000000AF78600B46FB707B68DB6823F0C0423D
:103510007B68DA60FB78012B06D17B68DB6843F0BF
:1035200000527B68DA600BE0FB78002B06D17B68E9
:10353000DB6843F080427B68DA6001E0012303E04E
:103540003220FFF715FE002318460837BD4680BD20
:1035500084B080B586B000AF786007F1240080E8C1
:103560000E000023FB757B68FB6000233B6109E0D4
:103570007A683B6940339B00134400225A603B69E0
:1035800001333B613B690E2BF2D9FB6C002B1CD144
:10359000FB6803F500635B68FA6802F5006243F0BC
:1035A000020353607B689B6B43F400127B689A6351
:1035B0007B689B6B23F400227B689A637B689B6B20
:1035C00023F480227B689A630BE07B689B6B23F477
:1035D00000127B689A637B689B6B43F400227B68D4
:1035E0009A63FB6803F560631A4600231360FB6867
:1035F00003F500631946FB6803F500631A460B6880
:103600001360BB6B012B0CD1FB6A002B04D1002192
:10361000786800F049F908E00121786800F044F981
:1036200003E00321786800F03FF91021786800F08A
:10363000F3F80346002B01D00123FB75786800F0F6
:1036400011F90346002B01D00123FB75FB6803F53C
:1036500000631A4600231361FB6803F500631A46F2
:1036600000235361FB6803F500631A460023D3610E
:1036700000233B6143E03B695A01FB68134403F5B7
:1036800010631B6803F00043B3F1004F18D13B698E
:10369000002B0AD13B695A01FB68134403F5106300
:1036A0001A464FF00063136013E03B695A01FB6850
:1036B000134403F510631A464FF09043136008E07B
:1036C0003B695A01FB68134403F510631A46002353
:1036D00013603B695A01FB68134403F510631A46F3
:1036E000002313613B695A01FB68134403F510631F
:1036F0001A464FF67F3393603B6901333B617B6A27
:103700003A699A42B7D300233B6143E03B695A01CF
:10371000FB68134403F530631B6803F00043B3F107
:10372000004F18D13B69002B0AD13B695A01FB6855
:10373000134403F530631A464FF00063136013E03F
:103740003B695A01FB68134403F530631A464FF096
:103750009043136008E03B695A01FB68134403F58A
:1037600030631A46002313603B695A01FB68134417
:1037700003F530631A46002313613B695A01FB6865
:10378000134403F530631A464FF67F3393603B6969
:1037900001333B617B6A3A699A42B7D3FB6803F510
:1037A00000631B69FA6802F5006223F480731361F9
:1037B0007B6800229A617B686FF080425A613B6BA4
:1037C000002B05D17B689B6943F010027B689A61EE
:1037D0007B689A690F4B13437A689361FB6B002BEC
:1037E00005D07B689B6943F008027B689A61FB6C9B
:1037F000012B07D17B689B6943F0804343F00403AE
:103800007A689361FB7D18461837BD46BDE8804055
:1038100004B0704700383C8080B485B000AF786059
:1038200039600023FB603B689B0143F020027B680A
:103830001A61FB680133FB60FB68094A934201D9B6
:10384000032306E07B681B6903F02003202BF0D0E4
:10385000002318461437BD465DF8047B704700BF4F
:10386000400D030080B485B000AF78600023FB609A
:103870007B6810221A61FB680133FB60FB68094A10
:10388000934201D9032306E07B681B6903F0100310
:10389000102BF0D0002318461437BD465DF8047B8A
:1038A000704700BF400D030080B485B000AF786062
:1038B0000B46FB707B68FB60FB6803F500631A68CE
:1038C000FB78F96801F5006113430B60002318468B
:1038D0001437BD465DF8047B704780B584B000AFF7
:1038E00078607B68FB60FB6803F500635B68FA68DF
:1038F00002F5006243F0020353600320FFF738FC37
:10390000002318461037BD4680BD000080B485B046
:1039100000AF78600023FB60FB680133FB60FB684D
:10392000134A934201D903231BE07B681B69002BD8
:10393000F2DA0023FB607B681B6943F001027B68BD
:103940001A61FB680133FB60FB68094A934201D9A5
:10395000032306E07B681B6903F00103012BF0D011
:10396000002318461437BD465DF8047B704700BF3E
:10397000400D030080B400AF084BD3F88830074AED
:1039800043F47003C2F88830044B4FF000629A6031
:1039900000BFBD465DF8047B704700BF00ED00E04E
:1039A00080B584B000AF78600023FB737B68002B88
:1039B00001D101235BE17B681B68A44A93420ED0CE
:1039C0007B681B68A24A934209D07B681B68A14AA6
:1039D000934204D040F243119F48FCF756FF7B68A6
:1039E0005B68002B13D07B685B68B3F5803F0ED01B
:1039F0007B685B68B3F5003F09D07B685B68B3F513
:103A0000403F04D04FF4A2719348FCF73EFF7B681F
:103A10009B68002B13D07B689B68B3F1807F0ED02E
:103A20007B689B68B3F1007F09D07B689B68B3F12A
:103A3000407F04D040F245118748FCF726FF7B68A1
:103A40001B69002B08D07B681B69012B04D04FF445
:103A5000A3718148FCF719FF7B681B7E002B08D0FF
:103A60007B681B7E012B04D040F247117A48FCF79B
:103A70000CFF7B689B6A002B54D07B689B6AB3F178
:103A8000807F4FD07B689B6AB3F1007F4AD07B6810
:103A90009B6AB3F1407F45D07B689B6AB3F1806F2E
:103AA00040D07B689B6AB3F1A06F3BD07B689B6A78
:103AB000B3F1C06F36D07B689B6AB3F1E06F31D051
:103AC0007B689B6AB3F1006F2CD07B689B6AB3F173
:103AD000106F27D07B689B6AB3F1206F22D07B6880
:103AE0009B6AB3F1306F1DD07B689B6AB3F1406F66
:103AF00018D07B689B6AB3F1506F13D07B689B6AC8
:103B0000B3F1606F0ED07B689B6AB3F1706F09D020
:103B10007B689B6A514A934204D04FF4A4714E488B
:103B2000FCF7B3FE7B68DB68002B09D07B68DB68A1
:103B3000B3F5006F04D040F249114748FCF7A5FEE9
:103B40007B68DB69002B03D07B68DB69102B04D911
:103B50004FF4A5714048FCF798FE7B6893F830302D
:103B6000002B09D07B6893F83030012B04D040F251
:103B70004B113948FCF789FE7B685B69012B0CD03F
:103B80007B685B69002B08D07B685B69022B04D0E3
:103B90004FF4A6713048FCF778FE7B6893F820302C
:103BA000002B09D07B6893F82030012B04D040F221
:103BB0004D112948FCF769FE7B689B6A274A9342AE
:103BC00017D07B68DB6A002B13D07B68DB6AB3F10C
:103BD000805F0ED07B68DB6AB3F1005F09D07B6841
:103BE000DB6AB3F1405F04D040F251111A48FCF790
:103BF0004CFE7B681B6C002B09D17868FCF7F4FE47
:103C00007B6800225A647B68002283F83C207B6832
:103C10001B6C03F01003002B22D17B681B6C23F478
:103C2000885323F0020343F002027B681A64786829
:103C300000F080F97B6800225A647B681B6C23F0DB
:103C4000030343F001027B681A640BE0002001408B
:103C50000021014000220140048D00080100000FF6
:103C60000123FB737B68002283F83C20FB7B184612
:103C70001037BD4680BD00BF80B584B000AF78600E
:103C800039600023BB603B681B68122B04D94FF4DA
:103C9000CB619B48FCF7F9FD3B685B68002B03D0C8
:103CA0003B685B68102B04D940F259619448FCF7DB
:103CB000ECFD3B689B68002B20D03B689B68012B88
:103CC0001CD03B689B68022B18D03B689B68032B79
:103CD00014D03B689B68042B10D03B689B68052B75
:103CE0000CD03B689B68062B08D03B689B68072B71
:103CF00004D040F25A618248FCF7C7FD7B6893F814
:103D00003C30012B01D102230FE17B68012283F8B3
:103D10003C203B681B68092B25D97B681B68D96848
:103D20003B681B689BB21A4613465B0013441E3B5C
:103D3000072202FA03F3DA437B681B680A40DA6061
:103D40007B681B68D9683B689A683B681B689BB2B4
:103D5000184603465B0003441E3B9A407B681B6881
:103D60000A43DA6022E07B681B6819693B681B68BC
:103D70009BB21A4613465B001344072202FA03F370
:103D8000DA437B681B680A401A617B681B68196903
:103D90003B689A683B681B689BB2184603465B0009
:103DA00003449A407B681B680A431A613B685B685E
:103DB000062B24D87B681B68596B3B685A681346EE
:103DC0009B001344053B1F2202FA03F3DA437B688E
:103DD0001B680A405A637B681B68596B3B681B6809
:103DE0009BB218463B685A6813469B001344053B38
:103DF00000FA03F27B681B680A435A634CE03B6895
:103E00005B680C2B24D87B681B68196B3B685A686D
:103E100013469B001344233B1F2202FA03F3DA43A9
:103E20007B681B680A401A637B681B68196B3B68D8
:103E30001B689BB218463B685A6813469B001344A4
:103E4000233B00FA03F27B681B680A431A6323E0F2
:103E50007B681B68D96A3B685A6813469B00134409
:103E6000413B1F2202FA03F3DA437B681B680A40D6
:103E7000DA627B681B68D96A3B681B689BB218468C
:103E80003B685A6813469B001344413B00FA03F217
:103E90007B681B680A43DA621A4BFB607B681B680D
:103EA000194A934209D13B681B68122B05D1FB6864
:103EB0005B6843F48002FB685A607B681B68124AA7
:103EC00093422DD13B681B68102B03D03B681B68C5
:103ED000112B25D1FB685B6843F40002FB685A6034
:103EE0003B681B68102B1BD1084B1B68084AA2FBC0
:103EF00003239A0C13469B0013445B00BB600CE049
:103F0000048D000800230140002001400C00002027
:103F100083DE1B43BB68013BBB60BB68002BF9D150
:103F20007B68002283F83C20002318461037BD46EA
:103F300080BD00BF80B584B000AF78607F4BFB6070
:103F4000FB685B6823F44032FB685A60FB685A6880
:103F50007B685B681A43FB685A607B681B685A6819
:103F60007B681B6822F480725A607B681B68596802
:103F70007B681B691A027B681B680A435A607B686E
:103F80001B685A687B681B6822F040725A607B6825
:103F90001B6859687B689A687B681B680A435A608B
:103FA0007B681B689A687B681B6822F400629A60D1
:103FB0007B681B6899687B68DA687B681B680A43C2
:103FC0009A607B689B6A5E4A934222D07B681B683A
:103FD0009A687B681B6822F070629A607B681B6835
:103FE00099687B689A6A7B681B680A439A607B6859
:103FF0001B689A687B681B6822F040529A607B6855
:104000001B6899687B68DA6A7B681B680A439A6058
:104010000FE07B681B689A687B681B6822F07062FF
:104020009A607B681B689A687B681B6822F0405224
:104030009A607B681B689A687B681B6822F00202A2
:104040009A607B681B6899687B681B7E5A007B6856
:104050001B680A439A607B6893F82030002B28D0B5
:104060007B685B6A002B03D07B685B6A082B04D9F2
:1040700040F275713348FCF708FC7B681B685A688E
:104080007B681B6842F400625A607B681B685A6850
:104090007B681B6822F460425A607B681B68596821
:1040A0007B685B6A013B5A037B681B680A435A6062
:1040B00007E07B681B685A687B681B6822F4006213
:1040C0005A607B681B68DA6A7B681B6822F470029E
:1040D000DA627B681B68D96A7B68DB69013B1A0579
:1040E0007B681B680A43DA627B681B689A687B6896
:1040F0001B6822F400729A607B681B6899687B6871
:1041000093F830305A027B681B680A439A607B68D8
:104110001B689A687B681B6822F480629A607B68DF
:104120001B6899687B685B699A027B681B680A4315
:104130009A6000BF1037BD4680BD00BF002301401C
:104140000100000F048D000880B582B000AF7860D8
:104150007B68002B01D1012309E17B681B68864A3B
:1041600093420ED07B681B68844A934209D07B68D7
:104170001B68834A934204D04FF4A1718148FCF735
:1041800084FB7B685B68002B09D07B685B68B3F5B8
:10419000827F04D040F243117A48FCF776FB7B68BB
:1041A0009B68002B0ED07B689B68B3F5806F09D0AD
:1041B0007B689B68B3F5004F04D04FF4A27171483F
:1041C000FCF763FB7B68DB68B3F5006F08D07B68A6
:1041D000DB68002B04D040F245116A48FCF755FB20
:1041E0007B689B69B3F5007F0DD07B689B69002BD2
:1041F00009D07B689B69B3F5802F04D04FF4A3717D
:104200006048FCF742FB7B68DB69002B20D07B68B1
:10421000DB69082B1CD07B68DB69102B18D07B680E
:10422000DB69182B14D07B68DB69202B10D07B68EE
:10423000DB69282B0CD07B68DB69302B08D07B68CE
:10424000DB69382B04D040F247114E48FCF71DFBC8
:104250007B681B6A002B08D07B681B6A802B04D00C
:104260004FF4A4714748FCF710FB7B685B6A002B96
:1042700008D07B685B6A102B04D040F2491141489A
:10428000FCF703FB7B685B6A002B19D17B681B6919
:10429000002B08D07B681B69022B04D04FF4A67159
:1042A0003848FCF7F2FA7B685B69002B08D07B6822
:1042B0005B69012B04D040F24D113248FCF7E5FA5E
:1042C0007B6800229A627B6893F85130DBB2002B46
:1042D00006D17B68002283F850207868FCF72CFC1C
:1042E0007B68022283F851207B681B681A687B6810
:1042F0001B6822F040021A607B685A687B689B68E2
:104300001A437B68DB681A437B681B691A437B6826
:104310005B691A437B689B6903F400731A437B68EB
:10432000DB691A437B681B6A42EA03017B689A6A6D
:104330007B681B680A431A607B689B691B0C03F04F
:1043400004017B685A6A7B681B680A435A607B6871
:104350001B68DA697B681B6822F40062DA617B689B
:1043600000225A657B68012283F8512000231846F9
:104370000837BD4680BD00BF003001400038004016
:10438000003C00403C8D000880B586B000AFF8606E
:10439000B9601346FB800023FB75FB689B6C002B08
:1043A00004D140F234615848FCF76FFAFB689B680F
:1043B000002B09D0FB689B68B3F5004F04D040F296
:1043C00037615148FCF761FAFB6893F85030012BD4
:1043D00001D1022393E0FB68012283F85020FB689F
:1043E00093F85130DBB2012B02D00223FB7581E040
:1043F000BB68002B02D0FB88002B02D10123FB7588
:1044000078E0FB68032283F85120FB6800225A659C
:10441000FB68BA681A63FB68FA889A86FB68FA88B0
:10442000DA86FB6800229A63FB6800225A64FB6804
:1044300000221A64FB6800229A87FB680022DA8750
:10444000FB689B68B3F5004F07D1FB681B681A68CF
:10445000FB681B6842F480421A60FB689B6C2B4A25
:104460001A64FB689B6C2A4ADA63FB689B6C294AD6
:10447000DA64FB689B6C00221A65FB68986CFB6829
:104480001B6B1946FB681B680C331A46FB68DB8EF6
:104490009BB2FEF7EBF90346002B0CD0FB685B6D7B
:1044A00043F01002FB685A650123FB75FB6801228B
:1044B00083F851201EE0FB681B681B6803F0400373
:1044C000402B07D0FB681B681A68FB681B6842F02A
:1044D00040021A60FB681B685A68FB681B6842F060
:1044E00020025A60FB681B685A68FB681B6842F030
:1044F00002025A60FB68002283F85020FB7D1846B8
:104500001837BD4680BD00BF3C8D0008FD45000842
:10451000554500081946000880B483B000AF7860A4
:1045200000BF0C37BD465DF8047B704780B483B094
:1045300000AF786000BF0C37BD465DF8047B704764
:1045400080B483B000AF786000BF0C37BD465DF823
:10455000047B704780B586B000AF78607B689B6B4A
:104560007B61FEF7F9FD38617B681B681B6803F40B
:104570008073B3F5807F3BD07B691B685A687B6989
:104580001B6822F020025A607B691B685A687B69AD
:104590001B6822F002025A603A696421786900F0CF
:1045A000C5F80346002B05D07B695B6D43F0200204
:1045B0007B695A657B699B68002B0AD10023FB60ED
:1045C0007B691B68DB68FB607B691B689B68FB6021
:1045D000FB687B690022DA867B69012283F851201F
:1045E0007B695B6D002B03D07869FFF7A9FF02E0C0
:1045F0007869FFF791FF1837BD4680BD80B584B05C
:1046000000AF78607B689B6BFB60F868FFF78EFFFC
:1046100000BF1037BD4680BD80B584B000AF786064
:104620007B689B6BFB60FB681B685A68FB681B68B8
:1046300022F003025A60FB685B6D43F01002FB68D6
:104640005A65FB68012283F85120F868FFF778FF6C
:1046500000BF1037BD4680BD80B584B000AFF860A4
:10466000B9603B601346FB714CE03B68B3F1FF3F20
:1046700048D0FEF771FD0246BB69D31A3A689A42E8
:1046800002D93B68002B3DD1FB681B685A68FB6868
:104690001B6822F0E0025A60FB685B68B3F5827F1A
:1046A00011D1FB689B68B3F5004F04D0FB689B6891
:1046B000B3F5806F07D1FB681B681A68FB681B683D
:1046C00022F040021A60FB689B6AB3F5005F0FD1CD
:1046D000FB681B681A68FB681B6822F400521A60AA
:1046E000FB681B681A68FB681B6842F400521A607A
:1046F000FB68012283F85120FB68002283F85020D8
:1047000003230FE0FB681B689A68BB681340BA6814
:104710009A420CBF01230023DBB21A46FB799A426E
:10472000A3D1002318461037BD4680BD80B588B0A0
:1047300002AFF860B9607A601B4B1B681B4AA2FB92
:1047400003235B0D4FF47A7202FB03F37B61FB687A
:104750005B68B3F5827F12D17B680093BB6800224F
:104760008021F868FFF778FF0346002B16D0FB681E
:104770005B6D43F02002FB685A6503230FE07B6901
:10478000002B0AD07B69013B7B61FB681B689B683F
:1047900003F08003802BF2D000E000BF0023184616
:1047A0001837BD4680BD00BF0C000020819F5E16FB
:1047B00080B582B000AF78607B68002B01D1012307
:1047C000B4E07B689B69002B31D07B681B68594A39
:1047D000934213D07B681B68574A93420ED07B6884
:1047E0001B68564A934209D07B681B68544A93421F
:1047F00004D040F24B115348FCF747F87B689B69A3
:10480000002B37D07B689B69B3F5807F32D07B6803
:104810009B69B3F5007F2DD07B689B69B3F5407F22
:1048200028D04FF4A6714748FCF72FF822E07B68A8
:104830001B68404A93421DD07B681B683E4A9342E6
:1048400018D07B681B683D4A934213D07B681B6875
:104850003D4A93420ED07B681B683C4A934209D084
:104860007B681B68364A934204D04FF4A8713548E0
:10487000FCF70BF87B689B68002B09D07B689B6872
:10488000B3F5805F04D04FF4A9712E48FBF7FDFF0C
:104890007B68DB69002B09D07B68DB69B3F5004FCF
:1048A00004D040F253112748FBF7EFFF7B6893F8E1
:1048B0003930DBB2002B06D17B68002283F8382028
:1048C0007868FCF7B1F97B68242283F839207B688B
:1048D0001B68DA687B681B6822F40052DA6078682B
:1048E00000F036F87B681B681A697B681B6822F445
:1048F00090421A617B681B685A697B681B6822F0CA
:104900002A025A617B681B68DA687B681B6842F47C
:104910000052DA607B680022DA637B68202283F829
:1049200039207B68202283F83A2000231846083774
:10493000BD4680BD001001400044004000480040DA
:1049400000140140748D0008004C004000500040ED
:104950002DE9F04FBDB000AFC7F8E400D7F8E43060
:104960005A68AE4B9A4204D940F6FB31AC48FBF78B
:104970008CFFD7F8E430DB68002B0AD0D7F8E4309E
:10498000DB68B3F5005F04D040F6FC31A448FBF7C8
:104990007CFFD7F8E4301B69002B10D0D7F8E43047
:1049A0001B69B3F5806F0AD0D7F8E4301B69B3F503
:1049B000C06F04D040F6FD319948FBF766FFD7F889
:1049C000E4305A694FF6F3731340002B04D1D7F843
:1049D000E4305B69002B04D140F6FE319048FBF7D0
:1049E00054FFD7F8E4301B681B6923F44050D7F814
:1049F000E430D968D7F8E4301A6840EA010313615B
:104A0000D7F8E4309A68D7F8E4301B691A43D7F82E
:104A1000E4305B691A43D7F8E430DB691343C7F825
:104A2000EC30D7F8E4301B68DB6823F4164121F042
:104A30000C01D7F8E4301A68D7F8EC300B43D36098
:104A4000D7F8E4301B685B6923F44070D7F8E43092
:104A50009969D7F8E4301A6840EA01035361D7F83E
:104A6000E430DB69B3F5004F40F0A981D7F8E430BA
:104A70001A686C4B9A4206D0D7F8E4301A686A4B31
:104A80009A4240F0D580FDF765F9C7F8E800D7F8FD
:104A9000E8301C464FF0000522462B469118C7F817
:104AA00088105B41C7F88C30D7E92223121945EBF7
:104AB00003034FF000004FF00001D90041EA5271AA
:104AC000D00002460B461119C7F8D8106B41C7F841
:104AD000DC30D7F8E4305B681A464FF000039118D9
:104AE000C7F880105B41C7F88430D7E92023D7E9A5
:104AF0003601FBF79DFB02460B464C4BA3FB022302
:104B00005B091E01D7F8E8301C464FF0000522462D
:104B10002B469118B9675B41FB67D7E91E23121931
:104B200045EB03034FF000004FF00001D90041EACC
:104B30005271D00002460B461119C7F8D0106B41D4
:104B4000C7F8D430D7F8E4305B681A464FF000035A
:104B5000911839675B417B67D7E91C23D7E934019A
:104B6000FBF766FB02460B46304BA3FB02135B09C7
:104B7000642101FB03F3D31ADB0032332B4AA2FB7F
:104B800003235B095B0003F4F8731E44D7F8E83095
:104B900018464FF0000102460B469418BC665B4174
:104BA000FB66D7E91A23121841EB03034FF0000408
:104BB0004FF00005DD0045EA5275D40022462B4631
:104BC0001418C7F8C8404B41C7F8CC30D7F8E430C8
:104BD0005B681A464FF00003911839665B417B66AB
:104BE000D7E91823D7E93201FBF722FB02460B462F
:104BF0000E4BA3FB02135B09642101FB03F3D31AE1
:104C0000DB003233094AA2FB03235B0903F00702EE
:104C1000D7F8E4301B6832449A6077E2A037A000EE
:104C2000748D000800100140001401401F85EB51F5
:104C3000FDF77CF8C7F8E800D7F8E8301C464FF0DD
:104C4000000522462B469118B9655B41FB65D7E903
:104C50001623121945EB03034FF000004FF000013B
:104C6000D90041EA5271D00002460B461119C7F82B
:104C7000C0106B41C7F8C430D7F8E4305B681A46FF
:104C80004FF00003911839655B417B65D7E9142328
:104C9000D7E93001FBF7CCFA02460B46B34BA3FB36
:104CA00002235B091E01D7F8E8301C464FF00005CF
:104CB00022462B469118B9645B41FB64D7E9122365
:104CC000121945EB03034FF000004FF00001D9002B
:104CD00041EA5271D00002460B461119C7F8B810CC
:104CE0006B41C7F8BC30D7F8E4305B681A464FF028
:104CF0000003911839645B417B64D7E91023D7E93D
:104D00002E01FBF795FA02460B46984BA3FB0213C4
:104D10005B09642101FB03F3D31ADB003233934AAE
:104D2000A2FB03235B095B0003F4F8731E44D7F86E
:104D3000E83018464FF0000102460B469418BC6359
:104D40005B41FB63D7E90E23121841EB03034FF0DD
:104D500000044FF00005DD0045EA5275D4002246FC
:104D60002B461418C7F8B0404B41C7F8B430D7F8F9
:104D7000E4305B681A464FF00003911839635B41D9
:104D80007B63D7E90C23D7E92C01FBF751FA0246E4
:104D90000B46764BA3FB02135B09642101FB03F373
:104DA000D31ADB003233714AA2FB03235B0903F001
:104DB0000702D7F8E4301B6832449A60A6E1D7F8BE
:104DC000E4301A686A4B9A4206D0D7F8E4301A6881
:104DD000684B9A4240F0D080FCF7BCFFC7F8E8006F
:104DE000D7F8E8301C464FF0000522462B469118B4
:104DF000B9625B41FB62D7E90A23121945EB030351
:104E00004FF000004FF00001D90041EA5271D0008C
:104E100002460B4612EB040A43EB050BD7F8E430CD
:104E20005B6818464FF000014FF000024FF000039E
:104E30008B0043EA9073820050465946FBF7F8F91D
:104E400002460B46494BA3FB02235B091E01D7F820
:104E5000E83018464FF0000102460B4694183C62B9
:104E60005B417B62D7E90823121841EB03034FF043
:104E700000044FF00005DD0045EA5275D4002246DB
:104E80002B461418C7F8A8404B41C7F8AC30D7F8E8
:104E9000E4305B6818464FF000014FF000024FF01D
:104EA00000038B0043EA90738200D7E92A01FBF7E5
:104EB000BFF902460B462D4BA3FB02135B0964218D
:104EC00001FB03F3D31A1B013233284AA2FB03234D
:104ED0005B0903F0F0031E44D7F8E83018464FF0A2
:104EE000000102460B469418BC615B41FB61D7E9A7
:104EF0000623121841EB03034FF000044FF00005A6
:104F0000DD0045EA5275D40022462B461418C7F836
:104F1000A0404B41C7F8A430D7F8E4305B6818468E
:104F20004FF000014FF000024FF000038B0043EA06
:104F300090738200D7E92801FBF77AF902460B4605
:104F40000A4BA3FB02135B09642101FB03F3D31A91
:104F50001B013233054AA2FB03235B0903F00F0256
:104F6000D7F8E4301B6832449A60CFE01F85EB51DC
:104F70000010014000140140FCF7D8FEC7F8E8001B
:104F8000D7F8E8301C464FF0000522462B46911812
:104F900039615B417B61D7E90423121945EB0303B7
:104FA0004FF000004FF00001D90041EA5271D000EB
:104FB00002460B4612EB040843EB0509D7F8E43030
:104FC0005B6818464FF000014FF000024FF00003FD
:104FD0008B0043EA9073820040464946FBF728F96C
:104FE00002460B464C4BA3FB02235B091E01D7F87C
:104FF000E83018464FF0000102460B469418BC609A
:105000005B41FB60D7E90223121841EB03034FF029
:1050100000044FF00005DD0045EA5275D400224639
:105020002B461418C7F898404B41C7F89C30D7F866
:10503000E4305B6818464FF000014FF000024FF07B
:1050400000038B0043EA90738200D7E92601FBF747
:10505000EFF802460B46304BA3FB02135B096421B9
:1050600001FB03F3D31A1B0132332B4AA2FB0323A8
:105070005B0903F0F0031E44D7F8E83018464FF000
:10508000000102460B4694183C605B417B60D7E907
:105090000023121841EB03034FF000044FF000050A
:1050A000DD0045EA5275D40022462B461418C7F895
:1050B00090404B41C7F89430D7F8E4305B6818460D
:1050C0004FF000014FF000024FF000038B0043EA65
:1050D00090738200D7E92401FBF7AAF802460B4639
:1050E0000D4BA3FB02135B09642101FB03F3D31AED
:1050F0001B013233084AA2FB03235B0903F00F02B2
:10510000D7F8E4301B6832449A60FFE700BFF437F9
:10511000BD46BDE8F08F00BF1F85EB51DFF834D0EE
:10512000002103E00C4B5B58435004310B480C4BFF
:1051300042189A42F6D30B4A02E0002342F8043B9D
:10514000094B9A42F9D3FEF715FC02F08BFBFBF7F3
:10515000A9F8704700000220089300080000002012
:105160005C03002060030020304E0120FEE780B584
:105170008AB000AFF860B9607A603B6007F1140351
:1051800000221A605A609A60DA601A61FB685B68F4
:105190007B61BB68BB617B68FB613B683B62FB6812
:1051A0001B6807F1140211461846FCF7E7FD00BF23
:1051B0002837BD4680BD80B584B000AF78607B687D
:1051C0001A687B685B689BB219461046FDF7C2F807
:1051D0000346012B0CBF01230023FB737B681B7A62
:1051E000002B04D0FB7B83F00103DBB205E0FB7BEB
:1051F000002B14BF01230023DBB218461037BD4635
:1052000080BD80B582B000AF78600B46FB707B68D4
:105210001B7A002B03D0FB7883F00103FB707B68C3
:1052200018687B685B6899B2FB78002B01D001237A
:1052300000E000231A46FDF7B3F800BF0837BD466B
:1052400080BD90B484B000AFF860384680E80E00AE
:10525000FB681C463B4693E8070084E80700FB68B0
:105260000C3307F1180207CA83E80700FB68002225
:105270001A76FB680022DA61FB68002283F820209E
:10528000FB6818461037BD4690BC704780B582B0A9
:1052900000AF78607868002301220749FFF767FFB5
:1052A0007B6803F10C00002301220021FFF75FFF60
:1052B00000BF0837BD4680BD0000311080B582B008
:1052C00000AF78600B467B807A887B685B689A4287
:1052D00003D1786800F005F800E000BF0837BD464C
:1052E00080BD80B584B000AF78607B681846FFF75A
:1052F00062FF0346FB737B680C331846FFF75BFFC6
:105300000346BB737B6893F82030FA7B9A4215D032
:105310007B68FA7B83F82020FB7B002B0ED17B6817
:1053200093F91830DBB2BA7B002A01D0012200E0E9
:10533000FF221344DBB25AB27B681A767B68DB69C2
:10534000002B02D07B68DB69984700BF1037BD4651
:1053500080BD80B483B000AF786039603B68184688
:105360000C37BD465DF8047B704780B400AF4FF446
:1053700080631846BD465DF8047B704780B483B0F7
:1053800000AF786039607B689A6C3B689B6C9A428E
:105390008CBF01230023DBB218460C37BD465DF8F5
:1053A000047B704780B582B000AF78607B68184698
:1053B00000F0E0FD7B6818460837BD4680BD000060
:1053C00090B599B000AF7860FDF7C6FEF8657B68D0
:1053D000184600F0BAF80346002B01D000243DE047
:1053E0007B68184600F0BAFD03469B6CFA6D9A4242
:1053F0002CBF01230023DBB2002B2ED007F10803C2
:105400007968184600F041F907F10803184600F0E2
:10541000BDFD0346002B03D129211348FBF735FAC4
:1054200007F10803184600F0C2FD7B6D002B0DD07C
:105430007A6DFB6D13443B6507F10803184600F0D5
:10544000C4FD03461946786800F0AFF9012407F15E
:1054500008031846FFF7A6FF00E00024234618467D
:105460006437BD4690BD00BFAC8D000880B598B0D4
:1054700000AFF860B9607A603B60B86800F0B0FDDA
:10548000024607F110031146184600F0D5FDFDF75E
:1054900063FE02467B681344BB653B68FB6507F10E
:1054A00010031946F86800F080F907F11003184658
:1054B000FFF778FF00BF6037BD4680BD80B582B082
:1054C00000AF7860786800F0CDFD034618460837D5
:1054D000BD4680BD80B582B000AF7860786800F0CE
:1054E000C1FD01467B6803F5A0331A6813469B0093
:1054F00013441B010B4418460837BD4680BD80B5D8
:1055000082B000AF786039607B683A68114618460F
:1055100000F092FD3B689A6C7B689A643B68DA6C99
:105520007B68DA647B6818460837BD4680BD80B466
:1055300083B000AF78607B6803F5A0331B68184622
:105540000C37BD465DF8047B704780B582B000AF74
:1055500078607868FFF7EBFF0346002B0CBF012350
:105560000023DBB218460837BD4680BD80B582B047
:1055700000AF78607B68184600F03DFE7B681846F7
:105580000837BD4680BD80B582B000AF78607B68CB
:105590001846FFF7EBFF7B6818460837BD4680BD0D
:1055A00080B582B000AF78607B681846FFF7EBFFEC
:1055B0007B6818460837BD4680BD80B582B000AF15
:1055C00078607B681846FFF7EBFF7B681846083762
:1055D000BD4680BD80B582B000AF78607B6818465C
:1055E000FFF7EBFF7B6818460837BD4680BD80B5E6
:1055F00082B000AF78607B681846FFF7EBFF7B68EE
:1056000018460837BD4680BD80B584B000AF7860CD
:1056100039603868FFF799FF0346002B10D001234B
:10562000FB6007F10C0207F108031146184600F071
:1056300060FD07F108031946786800F0C0FD20E01E
:10564000386800F00FFD01463B6803F5A0331A6887
:1056500013469B0013441B010B441846FFF7A2FEA0
:105660003B6803F5A0331B685A1E3B6803F5A03363
:105670001A607B681A460023136053607868FFF74E
:10568000B6FF78681037BD4680BDB0B584B000AFB6
:10569000786039603B681846FFF710FF04463B68A6
:1056A0001846FFF717FF03462A461946204600F022
:1056B000F1FC3B68184600F006FD0346184600F072
:1056C00084FC034619467868FFF719FF3A6807F12A
:1056D000080311461846FFF797FF00BF7868103798
:1056E000BD46B0BD90B583B000AF78607868FFF775
:1056F0001EFF0446FFF739FE03469C420CBF012300
:105700000023DBB218460C37BD4690BD90B589B07A
:1057100000AFF860B9607A60B868FFF7E3FF03464E
:10572000002B10D00023BB6107F1180207F114030E
:105730001146184600F0DDFC07F114031946F8681D
:1057400000F0BCFD2DE0786800F0D4FD0446B86898
:1057500000F088FC0146BB6803F5A0331A681346C5
:105760009B0013441B010B4419465020FFF7F1FD29
:10577000034621461846FFF7C2FEBB6803F5A03377
:105780001B685A1CBB6803F5A0331A60B86800F0A8
:105790009AFC0346FB6107F11C031946F86800F008
:1057A0002DFEF8682437BD4690BDB0B584B000AF7B
:1057B000786039607C68386800F007FC024607F1C1
:1057C000080321461846FFF7A1FF7B681846FFF73C
:1057D00075FE04467B681846FFF77CFE03462A46A2
:1057E0001946204600F01EFE00BF1037BD46B0BD72
:1057F00080B483B000AF786039603B689B007A6802
:10580000134418460C37BD465DF8047B704780B5DD
:1058100082B000AF786039607B683968184600F064
:1058200005F8034618460837BD4680BD80B483B0EE
:1058300000AF786039607A683B68134418460C37CB
:10584000BD465DF8047B704780B582B000AF7860DC
:105850007B681A687B685B681B6819461046FFF70F
:10586000D6FF03461B78772B10D0772B10DC742BD8
:105870000AD0742B0CDC442B02D0472B02D007E05B
:10588000002305E0012303E0022301E00323FFE7F7
:1058900018460837BD4680BD80B586B000AF786039
:1058A0000023FB750023BB60BB68032B1CDC3B1D86
:1058B000FB6007F108033B6107F10C031846FFF793
:1058C000C3FF0346BB75BA7DBB68C3F103035B002E
:1058D00002FA03F35AB297F9173013435BB2FB7520
:1058E000BB680133BB60DFE7FB7D18461837BD4658
:1058F00080BD80B483B000AF786039607B681A786F
:105900003B681B789A420DD17B685A783B685B787C
:105910009A4207D17B689A783B689B789A4201D17A
:10592000012300E0002318460C37BD465DF8047BD8
:10593000704780B485B000AFF860B9607A60FB68EA
:10594000BA681A60FB687A685A60FB6818461437B0
:10595000BD465DF8047B7047B0B582B000AF78609B
:105960003960786800F0B9FD0446786800F0C1FD40
:105970000546386800F0C9FD03461B681A462946EB
:10598000204600F0CDFD034618460837BD46B0BDA1
:1059900080B584B000AF78603960786800F04EF868
:1059A00003461A463A73C3F307227A73C3F30743D5
:1059B000BB7307F10C023B4611461846FFF799FFEF
:1059C0000346002B01D07B6831E07B681B68BB601D
:1059D0003B781946184800F071FD024607F10803AC
:1059E00019461046FFF7B8FF0346BB607B7819469F
:1059F000114800F063FD024607F1080319461046FE
:105A0000FFF7AAFF0346BB60BB7819460A4800F0BF
:105A100055FD024607F1080319461046FFF79CFFA3
:105A20000346BB607B685B6801221A707B6818467E
:105A30001037BD4680BD00BF588E000880B586B0C7
:105A400000AF78607B681B681B783B737B681B68C2
:105A50005B787B737B681B689B78BB737B681B6878
:105A6000DB78FB73F868FFF717FF03463B727B6830
:105A70001B681B793B747B681B685B797B747B6854
:105A80001B689B79BB747B681B68DB79FB74386986
:105A9000FFF702FF03467B727B681B681B7A3B752E
:105AA0007B681B685B7A7B757B681B689B7ABB7520
:105AB0007B681B68DB7AFB757869FFF7EDFE0346B0
:105AC000BB7200233A7A62F307037A7A62F30F23F8
:105AD000BA7A62F3174318461837BD4680BD80B5C1
